{
  "_format": "hh-sol-artifact-1",
  "contractName": "NFT",
  "sourceName": "contracts/NFT.sol",
  "abi": [
    {
      "inputs": [],
      "stateMutability": "nonpayable",
      "type": "constructor"
    },
    {
      "anonymous": false,
      "inputs": [
        {
          "indexed": true,
          "internalType": "address",
          "name": "owner",
          "type": "address"
        },
        {
          "indexed": true,
          "internalType": "address",
          "name": "approved",
          "type": "address"
        },
        {
          "indexed": true,
          "internalType": "uint256",
          "name": "tokenId",
          "type": "uint256"
        }
      ],
      "name": "Approval",
      "type": "event"
    },
    {
      "anonymous": false,
      "inputs": [
        {
          "indexed": true,
          "internalType": "address",
          "name": "owner",
          "type": "address"
        },
        {
          "indexed": true,
          "internalType": "address",
          "name": "operator",
          "type": "address"
        },
        {
          "indexed": false,
          "internalType": "bool",
          "name": "approved",
          "type": "bool"
        }
      ],
      "name": "ApprovalForAll",
      "type": "event"
    },
    {
      "anonymous": false,
      "inputs": [
        {
          "indexed": true,
          "internalType": "address",
          "name": "from",
          "type": "address"
        },
        {
          "indexed": true,
          "internalType": "address",
          "name": "to",
          "type": "address"
        },
        {
          "indexed": true,
          "internalType": "uint256",
          "name": "tokenId",
          "type": "uint256"
        }
      ],
      "name": "Transfer",
      "type": "event"
    },
    {
      "inputs": [
        {
          "internalType": "address",
          "name": "",
          "type": "address"
        }
      ],
      "name": "_changeablePixelsOf",
      "outputs": [
        {
          "internalType": "uint256",
          "name": "",
          "type": "uint256"
        }
      ],
      "stateMutability": "view",
      "type": "function"
    },
    {
      "inputs": [
        {
          "internalType": "address",
          "name": "to",
          "type": "address"
        },
        {
          "internalType": "uint256",
          "name": "tokenId",
          "type": "uint256"
        }
      ],
      "name": "approve",
      "outputs": [],
      "stateMutability": "nonpayable",
      "type": "function"
    },
    {
      "inputs": [
        {
          "internalType": "address",
          "name": "owner",
          "type": "address"
        }
      ],
      "name": "balanceOf",
      "outputs": [
        {
          "internalType": "uint256",
          "name": "",
          "type": "uint256"
        }
      ],
      "stateMutability": "view",
      "type": "function"
    },
    {
      "inputs": [
        {
          "internalType": "uint256",
          "name": "tokenId",
          "type": "uint256"
        },
        {
          "components": [
            {
              "internalType": "uint8",
              "name": "row",
              "type": "uint8"
            },
            {
              "internalType": "uint8",
              "name": "col",
              "type": "uint8"
            },
            {
              "internalType": "uint8",
              "name": "newColor",
              "type": "uint8"
            }
          ],
          "internalType": "struct NFT.ChangePixelPayload",
          "name": "cpp",
          "type": "tuple"
        }
      ],
      "name": "changePixel",
      "outputs": [],
      "stateMutability": "nonpayable",
      "type": "function"
    },
    {
      "inputs": [
        {
          "internalType": "uint256",
          "name": "tokenId",
          "type": "uint256"
        },
        {
          "components": [
            {
              "internalType": "uint8",
              "name": "row",
              "type": "uint8"
            },
            {
              "internalType": "uint8",
              "name": "col",
              "type": "uint8"
            },
            {
              "internalType": "uint8",
              "name": "newColor",
              "type": "uint8"
            }
          ],
          "internalType": "struct NFT.ChangePixelPayload",
          "name": "cpp",
          "type": "tuple"
        }
      ],
      "name": "changePixelTxData",
      "outputs": [
        {
          "internalType": "bytes",
          "name": "",
          "type": "bytes"
        }
      ],
      "stateMutability": "pure",
      "type": "function"
    },
    {
      "inputs": [
        {
          "internalType": "uint256",
          "name": "tokenId",
          "type": "uint256"
        },
        {
          "components": [
            {
              "internalType": "uint8",
              "name": "row",
              "type": "uint8"
            },
            {
              "internalType": "uint8",
              "name": "col",
              "type": "uint8"
            },
            {
              "internalType": "uint8",
              "name": "newColor",
              "type": "uint8"
            }
          ],
          "internalType": "struct NFT.ChangePixelPayload[]",
          "name": "cpps",
          "type": "tuple[]"
        }
      ],
      "name": "changePixels",
      "outputs": [],
      "stateMutability": "nonpayable",
      "type": "function"
    },
    {
      "inputs": [
        {
          "internalType": "uint256",
          "name": "tokenId",
          "type": "uint256"
        },
        {
          "components": [
            {
              "internalType": "uint8",
              "name": "row",
              "type": "uint8"
            },
            {
              "internalType": "uint8",
              "name": "col",
              "type": "uint8"
            },
            {
              "internalType": "uint8",
              "name": "newColor",
              "type": "uint8"
            }
          ],
          "internalType": "struct NFT.ChangePixelPayload[]",
          "name": "cpps",
          "type": "tuple[]"
        }
      ],
      "name": "changePixelsTxData",
      "outputs": [
        {
          "internalType": "bytes",
          "name": "",
          "type": "bytes"
        }
      ],
      "stateMutability": "pure",
      "type": "function"
    },
    {
      "inputs": [
        {
          "internalType": "uint256",
          "name": "tokenId",
          "type": "uint256"
        }
      ],
      "name": "getApproved",
      "outputs": [
        {
          "internalType": "address",
          "name": "",
          "type": "address"
        }
      ],
      "stateMutability": "view",
      "type": "function"
    },
    {
      "inputs": [
        {
          "internalType": "address",
          "name": "user",
          "type": "address"
        }
      ],
      "name": "getChangeablePixelsOf",
      "outputs": [
        {
          "internalType": "uint256",
          "name": "",
          "type": "uint256"
        }
      ],
      "stateMutability": "view",
      "type": "function"
    },
    {
      "inputs": [
        {
          "internalType": "address",
          "name": "owner",
          "type": "address"
        },
        {
          "internalType": "address",
          "name": "operator",
          "type": "address"
        }
      ],
      "name": "isApprovedForAll",
      "outputs": [
        {
          "internalType": "bool",
          "name": "",
          "type": "bool"
        }
      ],
      "stateMutability": "view",
      "type": "function"
    },
    {
      "inputs": [],
      "name": "lastTokenID",
      "outputs": [
        {
          "internalType": "uint256",
          "name": "_value",
          "type": "uint256"
        }
      ],
      "stateMutability": "view",
      "type": "function"
    },
    {
      "inputs": [],
      "name": "mint",
      "outputs": [],
      "stateMutability": "nonpayable",
      "type": "function"
    },
    {
      "inputs": [],
      "name": "name",
      "outputs": [
        {
          "internalType": "string",
          "name": "",
          "type": "string"
        }
      ],
      "stateMutability": "view",
      "type": "function"
    },
    {
      "inputs": [
        {
          "internalType": "uint256",
          "name": "tokenId",
          "type": "uint256"
        }
      ],
      "name": "ownerOf",
      "outputs": [
        {
          "internalType": "address",
          "name": "",
          "type": "address"
        }
      ],
      "stateMutability": "view",
      "type": "function"
    },
    {
      "inputs": [
        {
          "internalType": "address",
          "name": "from",
          "type": "address"
        },
        {
          "internalType": "address",
          "name": "to",
          "type": "address"
        },
        {
          "internalType": "uint256",
          "name": "tokenId",
          "type": "uint256"
        }
      ],
      "name": "safeTransferFrom",
      "outputs": [],
      "stateMutability": "nonpayable",
      "type": "function"
    },
    {
      "inputs": [
        {
          "internalType": "address",
          "name": "from",
          "type": "address"
        },
        {
          "internalType": "address",
          "name": "to",
          "type": "address"
        },
        {
          "internalType": "uint256",
          "name": "tokenId",
          "type": "uint256"
        },
        {
          "internalType": "bytes",
          "name": "data",
          "type": "bytes"
        }
      ],
      "name": "safeTransferFrom",
      "outputs": [],
      "stateMutability": "nonpayable",
      "type": "function"
    },
    {
      "inputs": [
        {
          "internalType": "address",
          "name": "operator",
          "type": "address"
        },
        {
          "internalType": "bool",
          "name": "approved",
          "type": "bool"
        }
      ],
      "name": "setApprovalForAll",
      "outputs": [],
      "stateMutability": "nonpayable",
      "type": "function"
    },
    {
      "inputs": [
        {
          "internalType": "bytes4",
          "name": "interfaceId",
          "type": "bytes4"
        }
      ],
      "name": "supportsInterface",
      "outputs": [
        {
          "internalType": "bool",
          "name": "",
          "type": "bool"
        }
      ],
      "stateMutability": "view",
      "type": "function"
    },
    {
      "inputs": [],
      "name": "symbol",
      "outputs": [
        {
          "internalType": "string",
          "name": "",
          "type": "string"
        }
      ],
      "stateMutability": "view",
      "type": "function"
    },
    {
      "inputs": [
        {
          "internalType": "uint256",
          "name": "tokenId",
          "type": "uint256"
        }
      ],
      "name": "tokenData",
      "outputs": [
        {
          "internalType": "uint8[8][8]",
          "name": "",
          "type": "uint8[8][8]"
        }
      ],
      "stateMutability": "view",
      "type": "function"
    },
    {
      "inputs": [],
      "name": "tokenPixelSize",
      "outputs": [
        {
          "internalType": "uint8",
          "name": "",
          "type": "uint8"
        }
      ],
      "stateMutability": "pure",
      "type": "function"
    },
    {
      "inputs": [
        {
          "internalType": "uint256",
          "name": "tokenID",
          "type": "uint256"
        }
      ],
      "name": "tokenSVG",
      "outputs": [
        {
          "internalType": "string",
          "name": "",
          "type": "string"
        }
      ],
      "stateMutability": "view",
      "type": "function"
    },
    {
      "inputs": [
        {
          "internalType": "uint256",
          "name": "tokenID",
          "type": "uint256"
        }
      ],
      "name": "tokenURI",
      "outputs": [
        {
          "internalType": "string",
          "name": "",
          "type": "string"
        }
      ],
      "stateMutability": "view",
      "type": "function"
    },
    {
      "inputs": [
        {
          "internalType": "uint256[]",
          "name": "tokenIds",
          "type": "uint256[]"
        }
      ],
      "name": "tokensData",
      "outputs": [
        {
          "internalType": "uint8[8][8][]",
          "name": "",
          "type": "uint8[8][8][]"
        }
      ],
      "stateMutability": "view",
      "type": "function"
    },
    {
      "inputs": [
        {
          "internalType": "address",
          "name": "user",
          "type": "address"
        }
      ],
      "name": "tokensOf",
      "outputs": [
        {
          "internalType": "uint256[]",
          "name": "",
          "type": "uint256[]"
        }
      ],
      "stateMutability": "view",
      "type": "function"
    },
    {
      "inputs": [
        {
          "internalType": "address",
          "name": "from",
          "type": "address"
        },
        {
          "internalType": "address",
          "name": "to",
          "type": "address"
        },
        {
          "internalType": "uint256",
          "name": "tokenId",
          "type": "uint256"
        }
      ],
      "name": "transferFrom",
      "outputs": [],
      "stateMutability": "nonpayable",
      "type": "function"
    }
  ],
  "bytecode": "0x60806040523480156200001157600080fd5b50604051806040016040528060088152602001674e46542047616d6560c01b815250604051806040016040528060048152602001634e46544760e01b81525081600090816200006191906200011e565b5060016200007082826200011e565b505050620001ea565b634e487b7160e01b600052604160045260246000fd5b600181811c90821680620000a457607f821691505b602082108103620000c557634e487b7160e01b600052602260045260246000fd5b50919050565b601f8211156200011957600081815260208120601f850160051c81016020861015620000f45750805b601f850160051c820191505b81811015620001155782815560010162000100565b5050505b505050565b81516001600160401b038111156200013a576200013a62000079565b62000152816200014b84546200008f565b84620000cb565b602080601f8311600181146200018a5760008415620001715750858301515b600019600386901b1c1916600185901b17855562000115565b600085815260208120601f198616915b82811015620001bb578886015182559484019460019091019084016200019a565b5085821015620001da5787850151600019600388901b60f8161c191681555b5050505050600190811b01905550565b61274c80620001fa6000396000f3fe608060405234801561001057600080fd5b506004361061018e5760003560e01c80636352211e116100de578063a22cb46511610097578063c87b56dd11610071578063c87b56dd14610385578063d050556714610398578063e985e9c5146103ab578063ee14e276146103e757600080fd5b8063a22cb4651461033f578063b4b5b48f14610352578063b88d4fde1461037257600080fd5b80636352211e146102cb57806370a08231146102de5780637d425e78146102f157806381d028061461030457806395d89b41146103245780639bac5f7a1461032c57600080fd5b806331a625331161014b57806342842e0e1161012557806342842e0e146102655780634cbed081146102785780635021b1e3146102985780635a3f2672146102ab57600080fd5b806331a625331461022b57806332552b6f1461023a5780633521bd7e1461024d57600080fd5b806301ffc9a71461019357806306fdde03146101bb578063081812fc146101d0578063095ea7b3146101fb5780631249c58b1461021057806323b872dd14610218575b600080fd5b6101a66101a13660046119e4565b610410565b60405190151581526020015b60405180910390f35b6101c3610462565b6040516101b29190611a58565b6101e36101de366004611a6b565b6104f4565b6040516001600160a01b0390911681526020016101b2565b61020e610209366004611aa0565b61051b565b005b61020e610635565b61020e610226366004611aca565b6106a0565b604051600881526020016101b2565b6101c3610248366004611bcd565b6106d1565b6006546102579081565b6040519081526020016101b2565b61020e610273366004611aca565b6106fd565b610257610286366004611bfa565b60096020526000908152604090205481565b61020e6102a6366004611bcd565b610718565b6102be6102b9366004611bfa565b610736565b6040516101b29190611c15565b6101e36102d9366004611a6b565b6107a2565b6102576102ec366004611bfa565b610802565b6101c36102ff366004611c7d565b610888565b610317610312366004611d28565b61089d565b6040516101b29190611e15565b6101c36109e5565b6101c361033a366004611a6b565b6109f4565b61020e61034d366004611e58565b610a67565b610365610360366004611a6b565b610a72565b6040516101b29190611e94565b61020e610380366004611ea3565b610b09565b6101c3610393366004611a6b565b610b41565b61020e6103a6366004611c7d565b610b92565b6101a66103b9366004611f63565b6001600160a01b03918216600090815260056020908152604080832093909416825291909152205460ff1690565b6102576103f5366004611bfa565b6001600160a01b031660009081526009602052604090205490565b60006001600160e01b031982166380ac58cd60e01b148061044157506001600160e01b03198216635b5e139f60e01b145b8061045c57506301ffc9a760e01b6001600160e01b03198316145b92915050565b60606000805461047190611f8d565b80601f016020809104026020016040519081016040528092919081815260200182805461049d90611f8d565b80156104ea5780601f106104bf576101008083540402835291602001916104ea565b820191906000526020600020905b8154815290600101906020018083116104cd57829003601f168201915b5050505050905090565b60006104ff82610be7565b506000908152600460205260409020546001600160a01b031690565b6000610526826107a2565b9050806001600160a01b0316836001600160a01b0316036105985760405162461bcd60e51b815260206004820152602160248201527f4552433732313a20617070726f76616c20746f2063757272656e74206f776e656044820152603960f91b60648201526084015b60405180910390fd5b336001600160a01b03821614806105b457506105b481336103b9565b6106265760405162461bcd60e51b815260206004820152603e60248201527f4552433732313a20617070726f76652063616c6c6572206973206e6f7420746f60448201527f6b656e206f776e6572206e6f7220617070726f76656420666f7220616c6c0000606482015260840161058f565b6106308383610c49565b505050565b33600061064160065490565b905061064d8282610cb7565b61065681610cd1565b6001600160a01b038216600090815260086020818152604083208054600181018255908452922090910182905561068e908390610e0e565b61069c600680546001019055565b5050565b6106aa3382610e3f565b6106c65760405162461bcd60e51b815260040161058f90611fc7565b610630838383610ebe565b606082826040516020016106e6929190612015565b604051602081830303815290604052905092915050565b61063083838360405180602001604052806000815250610b09565b6107218261105a565b61072c3360016110c3565b61069c828261112b565b6001600160a01b03811660009081526008602090815260409182902080548351818402810184019094528084526060939283018282801561079657602002820191906000526020600020905b815481526020019060010190808311610782575b50505050509050919050565b6000818152600260205260408120546001600160a01b03168061045c5760405162461bcd60e51b8152602060048201526018602482015277115490cdcc8c4e881a5b9d985b1a59081d1bdad95b88125160421b604482015260640161058f565b60006001600160a01b03821661086c5760405162461bcd60e51b815260206004820152602960248201527f4552433732313a2061646472657373207a65726f206973206e6f7420612076616044820152683634b21037bbb732b960b91b606482015260840161058f565b506001600160a01b031660009081526003602052604090205490565b606082826040516020016106e6929190612049565b60606000825167ffffffffffffffff8111156108bb576108bb611b06565b6040519080825280602002602001820160405280156108f457816020015b6108e1611981565b8152602001906001900390816108d95790505b50905060005b83518110156109de5760076000858381518110610919576109196120c0565b60200260200101518152602001908152602001600020600880602002604051908101604052809291906000905b828210156109aa57604080516101008101918290529085840190600890826000855b825461010083900a900460ff16815260206001928301818104948501949093039092029101808411610968579050505050505081526020019060010190610946565b505050508282815181106109c0576109c06120c0565b602002602001018190525080806109d6906120ec565b9150506108fa565b5092915050565b60606001805461047190611f8d565b60606000610a0182611198565b610a0b6060611198565b610a1485611299565b604051602001610a2693929190612121565b6040516020818303038152906040529050610a40816113d9565b604051602001610a509190612218565b604051602081830303815290604052915050919050565b61069c33838361152c565b610a7a611981565b600082815260076020526040808220815161010081019092529091600890835b82821015610afe57604080516101008101918290529085840190600890826000855b825461010083900a900460ff16815260206001928301818104948501949093039092029101808411610abc579050505050505081526020019060010190610a9a565b505050509050919050565b610b133383610e3f565b610b2f5760405162461bcd60e51b815260040161058f90611fc7565b610b3b848484846115fa565b50505050565b60606000610b4e83611198565b610b57846109f4565b604051602001610b6892919061225d565b6040516020818303038152906040529050610b82816113d9565b604051602001610a509190612315565b610b9b8261105a565b610ba63382516110c3565b60005b815181101561063057610bd583838381518110610bc857610bc86120c0565b602002602001015161112b565b80610bdf816120ec565b915050610ba9565b6000818152600260205260409020546001600160a01b0316610c465760405162461bcd60e51b8152602060048201526018602482015277115490cdcc8c4e881a5b9d985b1a59081d1bdad95b88125160421b604482015260640161058f565b50565b600081815260046020526040902080546001600160a01b0319166001600160a01b0384169081179091558190610c7e826107a2565b6001600160a01b03167f8c5be1e5ebec7d5bd14f71427d1e84f3dd0314c0f7b2291e5b200ac8c7c3b92560405160405180910390a45050565b61069c82826040518060200160405280600081525061162d565b6040805142602080830191909152825180830382018152828401845280519082012043606080850191909152845180850390910181526080909301909352815191012060005b600860ff82161015610b3b5760005b600860ff82161015610dfb57610d518482610d4260088661235a565b610d4c9190612376565b611660565b15610de9576000610100610d66836001612376565b610d71856001612376565b610d7b919061235a565b60ff1685901c610d8b91906123a5565b6000878152600760205260409020909150819060ff841660088110610db257610db26120c0565b018460ff1660088110610dc757610dc76120c0565b602091828204019190066101000a81548160ff021916908360ff160217905550505b80610df3816123b9565b915050610d26565b5080610e06816123b9565b915050610d17565b6001600160a01b03821660009081526009602052604081208054839290610e369084906123d8565b90915550505050565b600080610e4b836107a2565b9050806001600160a01b0316846001600160a01b03161480610e9257506001600160a01b0380821660009081526005602090815260408083209388168352929052205460ff165b80610eb65750836001600160a01b0316610eab846104f4565b6001600160a01b0316145b949350505050565b826001600160a01b0316610ed1826107a2565b6001600160a01b031614610f355760405162461bcd60e51b815260206004820152602560248201527f4552433732313a207472616e736665722066726f6d20696e636f72726563742060448201526437bbb732b960d91b606482015260840161058f565b6001600160a01b038216610f975760405162461bcd60e51b8152602060048201526024808201527f4552433732313a207472616e7366657220746f20746865207a65726f206164646044820152637265737360e01b606482015260840161058f565b610fa2600082610c49565b6001600160a01b0383166000908152600360205260408120805460019290610fcb9084906123eb565b90915550506001600160a01b0382166000908152600360205260408120805460019290610ff99084906123d8565b909155505060008181526002602052604080822080546001600160a01b0319166001600160a01b0386811691821790925591518493918716917fddf252ad1be2c89b69c2b068fc378daa952ba7f163c4a11628f55a4df523b3ef91a4505050565b611063816107a2565b6001600160a01b0316336001600160a01b031614610c465760405162461bcd60e51b815260206004820152601960248201527f43616c6c6572206973206e6f7420746f6b656e206f776e657200000000000000604482015260640161058f565b6001600160a01b03821660009081526009602052604090205481111561069c5760405162461bcd60e51b815260206004820152601c60248201527f4e6f7420656e6f756768206368616e676561626c6520706978656c7300000000604482015260640161058f565b806040015160076000848152602001908152602001600020826020015160ff166008811061115b5761115b6120c0565b01826000015160ff1660088110611174576111746120c0565b602091828204019190066101000a81548160ff021916908360ff1602179055505050565b6060816000036111bf5750506040805180820190915260018152600360fc1b602082015290565b8160005b81156111e957806111d3816120ec565b91506111e29050600a836123fe565b91506111c3565b60008167ffffffffffffffff81111561120457611204611b06565b6040519080825280601f01601f19166020018201604052801561122e576020820181803683370190505b5090505b8415610eb6576112436001836123eb565b9150611250600a866123a5565b61125b9060306123d8565b60f81b818381518110611270576112706120c0565b60200101906001600160f81b031916908160001a905350611292600a866123fe565b9450611232565b60608060005b600860ff821610156109de57606060005b600860ff821610156113a05760006112c9600c8561235a565b60ff16905060006112db600c8461235a565b60ff169050836112ee8361ffff16611198565b6112fb8361ffff16611198565b611305600c611198565b61130f600c611198565b60008d81526007602052604090206113659060ff8a1660088110611335576113356120c0565b018b60ff166008811061134a5761134a6120c0565b602081049091015460ff601f9092166101000a90041661167d565b60405160200161137a96959493929190612412565b604051602081830303815290604052935050508080611398906123b9565b9150506112b0565b5082816040516020016113b4929190612525565b60405160208183030381529060405292505080806113d1906123b9565b91505061129f565b606081516000036113f857505060408051602081019091526000815290565b60006040518060600160405280604081526020016126d7604091399050600060038451600261142791906123d8565b61143191906123fe565b61143c906004612554565b67ffffffffffffffff81111561145457611454611b06565b6040519080825280601f01601f19166020018201604052801561147e576020820181803683370190505b509050600182016020820185865187015b808210156114ea576003820191508151603f8160121c168501518453600184019350603f81600c1c168501518453600184019350603f8160061c168501518453600184019350603f811685015184535060018301925061148f565b5050600386510660018114611506576002811461151957611521565b603d6001830353603d6002830353611521565b603d60018303535b509195945050505050565b816001600160a01b0316836001600160a01b03160361158d5760405162461bcd60e51b815260206004820152601960248201527f4552433732313a20617070726f766520746f2063616c6c657200000000000000604482015260640161058f565b6001600160a01b03838116600081815260056020908152604080832094871680845294825291829020805460ff191686151590811790915591519182527f17307eab39ab6107e8899845ad3d59bd9653f200f220920489ca2b5937696c31910160405180910390a3505050565b611605848484610ebe565b6116118484848461173e565b610b3b5760405162461bcd60e51b815260040161058f9061256b565b611637838361183f565b611644600084848461173e565b6106305760405162461bcd60e51b815260040161058f9061256b565b6000611673600260ff841685901c6123a5565b6001149392505050565b60606007600583901c811690600284901c81169060038516906000906116a48560ff6125bd565b6116ae91906125e3565b9050600060076116c260ff808716906125bd565b6116cc91906125e3565b9050600060036116e060ff808716906125bd565b6116ea91906125e3565b90506116f88360ff16611198565b6117048360ff16611198565b6117108360ff16611198565b60405160200161172293929190612604565b6040516020818303038152906040529650505050505050919050565b60006001600160a01b0384163b1561183457604051630a85bd0160e11b81526001600160a01b0385169063150b7a029061178290339089908890889060040161267c565b6020604051808303816000875af19250505080156117bd575060408051601f3d908101601f191682019092526117ba918101906126b9565b60015b61181a573d8080156117eb576040519150601f19603f3d011682016040523d82523d6000602084013e6117f0565b606091505b5080516000036118125760405162461bcd60e51b815260040161058f9061256b565b805181602001fd5b6001600160e01b031916630a85bd0160e11b149050610eb6565b506001949350505050565b6001600160a01b0382166118955760405162461bcd60e51b815260206004820181905260248201527f4552433732313a206d696e7420746f20746865207a65726f2061646472657373604482015260640161058f565b6000818152600260205260409020546001600160a01b0316156118fa5760405162461bcd60e51b815260206004820152601c60248201527f4552433732313a20746f6b656e20616c7265616479206d696e74656400000000604482015260640161058f565b6001600160a01b03821660009081526003602052604081208054600192906119239084906123d8565b909155505060008181526002602052604080822080546001600160a01b0319166001600160a01b03861690811790915590518392907fddf252ad1be2c89b69c2b068fc378daa952ba7f163c4a11628f55a4df523b3ef908290a45050565b6040518061010001604052806008905b6119996119af565b8152602001906001900390816119915790505090565b6040518061010001604052806008906020820280368337509192915050565b6001600160e01b031981168114610c4657600080fd5b6000602082840312156119f657600080fd5b8135611a01816119ce565b9392505050565b60005b83811015611a23578181015183820152602001611a0b565b50506000910152565b60008151808452611a44816020860160208601611a08565b601f01601f19169290920160200192915050565b602081526000611a016020830184611a2c565b600060208284031215611a7d57600080fd5b5035919050565b80356001600160a01b0381168114611a9b57600080fd5b919050565b60008060408385031215611ab357600080fd5b611abc83611a84565b946020939093013593505050565b600080600060608486031215611adf57600080fd5b611ae884611a84565b9250611af660208501611a84565b9150604084013590509250925092565b634e487b7160e01b600052604160045260246000fd5b604051601f8201601f1916810167ffffffffffffffff81118282101715611b4557611b45611b06565b604052919050565b803560ff81168114611a9b57600080fd5b600060608284031215611b7057600080fd5b6040516060810181811067ffffffffffffffff82111715611b9357611b93611b06565b604052905080611ba283611b4d565b8152611bb060208401611b4d565b6020820152611bc160408401611b4d565b60408201525092915050565b60008060808385031215611be057600080fd5b82359150611bf18460208501611b5e565b90509250929050565b600060208284031215611c0c57600080fd5b611a0182611a84565b6020808252825182820181905260009190848201906040850190845b81811015611c4d57835183529284019291840191600101611c31565b50909695505050505050565b600067ffffffffffffffff821115611c7357611c73611b06565b5060051b60200190565b60008060408385031215611c9057600080fd5b8235915060208084013567ffffffffffffffff811115611caf57600080fd5b8401601f81018613611cc057600080fd5b8035611cd3611cce82611c59565b611b1c565b81815260609182028301840191848201919089841115611cf257600080fd5b938501935b83851015611d1857611d098a86611b5e565b83529384019391850191611cf7565b5080955050505050509250929050565b60006020808385031215611d3b57600080fd5b823567ffffffffffffffff811115611d5257600080fd5b8301601f81018513611d6357600080fd5b8035611d71611cce82611c59565b81815260059190911b82018301908381019087831115611d9057600080fd5b928401925b82841015611dae57833582529284019290840190611d95565b979650505050505050565b806000805b6008808210611dcd5750611e0e565b835186845b83811015611df357825160ff16825260209283019290910190600101611dd2565b50505061010095909501945060209290920191600101611dbe565b5050505050565b6020808252825182820181905260009190848201906040850190845b81811015611c4d57611e44838551611db9565b928401926108009290920191600101611e31565b60008060408385031215611e6b57600080fd5b611e7483611a84565b915060208301358015158114611e8957600080fd5b809150509250929050565b610800810161045c8284611db9565b60008060008060808587031215611eb957600080fd5b611ec285611a84565b93506020611ed1818701611a84565b935060408601359250606086013567ffffffffffffffff80821115611ef557600080fd5b818801915088601f830112611f0957600080fd5b813581811115611f1b57611f1b611b06565b611f2d601f8201601f19168501611b1c565b91508082528984828501011115611f4357600080fd5b808484018584013760008482840101525080935050505092959194509250565b60008060408385031215611f7657600080fd5b611f7f83611a84565b9150611bf160208401611a84565b600181811c90821680611fa157607f821691505b602082108103611fc157634e487b7160e01b600052602260045260246000fd5b50919050565b6020808252602e908201527f4552433732313a2063616c6c6572206973206e6f7420746f6b656e206f776e6560408201526d1c881b9bdc88185c1c1c9bdd995960921b606082015260800190565b82815260808101611a01602083018460ff815116825260ff602082015116602083015260ff60408201511660408301525050565b600060408201848352602060408185015281855180845260609350838601915082870160005b828110156120b2576120a284835160ff815116825260ff602082015116602083015260ff60408201511660408301525050565b928501929084019060010161206f565b509198975050505050505050565b634e487b7160e01b600052603260045260246000fd5b634e487b7160e01b600052601160045260246000fd5b6000600182016120fe576120fe6120d6565b5060010190565b60008151612117818560208601611a08565b9290920192915050565b6401e39bb33960dd1b81527f786d6c6e733d22687474703a2f2f7777772e77332e6f72672f323030302f737660058201527f6722207072657365727665417370656374526174696f3d22784d696e594d696e60258201526601036b2b2ba11160cd1b60458201526c03b34b2bba137bc1e911810181609d1b604c82015283516000906121b4816059850160208901611a08565b600160fd1b60599184019182015284516121d581605a840160208901611a08565b61111f60f11b605a929091019182015283516121f881605c840160208801611a08565b651e17b9bb339f60d11b605c929091019182015260620195945050505050565b7f646174613a696d6167652f7376672b786d6c3b6261736536342c00000000000081526000825161225081601a850160208701611a08565b91909101601a0192915050565b607b60f81b815272226e616d65223a202247616d65204e4654202360681b60018201528251600090612296816014850160208801611a08565b61088b60f21b6014918401918201527f226465736372697074696f6e223a2022506978656c204e4654222c00000000006016820152691134b6b0b3b2911d101160b11b603182015283516122f181603b840160208801611a08565b601160f91b603b9290910191820152607d60f81b603c820152603d01949350505050565b7f646174613a6170706c69636174696f6e2f6a736f6e3b6261736536342c00000081526000825161234d81601d850160208701611a08565b91909101601d0192915050565b60ff81811683821602908116908181146109de576109de6120d6565b60ff818116838216019081111561045c5761045c6120d6565b634e487b7160e01b600052601260045260246000fd5b6000826123b4576123b461238f565b500690565b600060ff821660ff81036123cf576123cf6120d6565b60010192915050565b8082018082111561045c5761045c6120d6565b8181038181111561045c5761045c6120d6565b60008261240d5761240d61238f565b500490565b60008751612424818460208c01611a08565b6501e3932b1ba160d51b908301908152623c1e9160e91b60068201528751612453816009840160208c01611a08565b6411103c9e9160d91b60099290910191820152865161247981600e840160208b01611a08565b61011160f51b600e9290910191820152663bb4b23a341e9160c91b601082015285516124ac816017840160208a01611a08565b6125176125096124e36125036124f16124e36124dd6017888a01016911103432b4b3b43a1e9160b11b8152600a0190565b8c612105565b61011160f51b815260020190565b653334b6361e9160d11b815260060190565b88612105565b61179f60f11b815260020190565b9a9950505050505050505050565b60008351612537818460208801611a08565b83519083019061254b818360208801611a08565b01949350505050565b808202811582820484141761045c5761045c6120d6565b60208082526032908201527f4552433732313a207472616e7366657220746f206e6f6e20455243373231526560408201527131b2b4bb32b91034b6b83632b6b2b73a32b960711b606082015260800190565b61ffff8181168382160280821691908281146125db576125db6120d6565b505092915050565b600061ffff808416806125f8576125f861238f565b92169190910492915050565b630e4cec4560e31b815260008451612623816004850160208901611a08565b8083019050600b60fa1b8060048301528551612646816005850160208a01611a08565b60059201918201528351612661816006840160208801611a08565b602960f81b6006929091019182015260070195945050505050565b6001600160a01b03858116825284166020820152604081018390526080606082018190526000906126af90830184611a2c565b9695505050505050565b6000602082840312156126cb57600080fd5b8151611a01816119ce56fe4142434445464748494a4b4c4d4e4f505152535455565758595a6162636465666768696a6b6c6d6e6f707172737475767778797a303132333435363738392b2fa2646970667358221220954535489822f0beaa3b9c0f2bedb06ec3f3578abef7eebeca46b01e9b96255364736f6c63430008110033",
  "linkReferences": {},
  "deployedLinkReferences": {}
}